{
  "transactions": [
    {
      "hash": "0xaeec718c55629f67a2a8d3f5f522a74db29560fa20df0f29bc6bbaf054b4491e",
      "transactionType": "CALL",
      "contractName": null,
      "contractAddress": "0x6d521a9f71f01dd8669c4a2824d610a9f86962ae",
      "function": "mintNft(string)",
      "arguments": [
        "\"ipfs://bafybeig37ioir76s7mg5oobetncojcm3c3hxasyd4rvid4jqhy4gkaheg4/?filename=0-PUG.json\""
      ],
      "transaction": {
        "from": "0x0364eda3cf25b1bfb4918ab93d5df173c197c9ab",
        "to": "0x6d521a9f71f01dd8669c4a2824d610a9f86962ae",
        "gas": "0x3d60d",
        "value": "0x0",
        "input": "0xda86f4a900000000000000000000000000000000000000000000000000000000000000200000000000000000000000000000000000000000000000000000000000000057697066733a2f2f62616679626569673337696f6972373673376d67356f6f6265746e636f6a636d3363336878617379643472766964346a71687934676b61686567342f3f66696c656e616d653d302d5055472e6a736f6e000000000000000000",
        "nonce": "0x2e",
        "chainId": "0xaa36a7"
      },
      "additionalContracts": [],
      "isFixedGasLimit": false
    }
  ],
  "receipts": [
    {
      "status": "0x1",
      "cumulativeGasUsed": "0x788a94",
      "logs": [
        {
          "address": "0x6d521a9f71f01dd8669c4a2824d610a9f86962ae",
          "topics": [
            "0xddf252ad1be2c89b69c2b068fc378daa952ba7f163c4a11628f55a4df523b3ef",
            "0x0000000000000000000000000000000000000000000000000000000000000000",
            "0x0000000000000000000000000364eda3cf25b1bfb4918ab93d5df173c197c9ab",
            "0x0000000000000000000000000000000000000000000000000000000000000000"
          ],
          "data": "0x",
          "blockHash": "0xaec843fbd66abfc6eaefce414c66fbbc24805e139ace27094557a7b6c70213f1",
          "blockNumber": "0x5db4de",
          "transactionHash": "0xaeec718c55629f67a2a8d3f5f522a74db29560fa20df0f29bc6bbaf054b4491e",
          "transactionIndex": "0x39",
          "logIndex": "0x54",
          "removed": false
        }
      ],
      "logsBloom": "0x00000000000000000000080000000000000000000000000000000000000000000000000000000000000200000000000000000000000000000000002000000000000000000000000000000008000000000000000800000000800000000000000000000000020000000000000000000800000000000000000000000010000000400000000000000000000000000000000000000000000000000000000000000000000000000000000000000000000000000000000000000000000000000000000000000002000000000000000000000000000000000000000000000000000020000000000000000000000000000000000000000000000000000000000000000000",
      "type": "0x2",
      "transactionHash": "0xaeec718c55629f67a2a8d3f5f522a74db29560fa20df0f29bc6bbaf054b4491e",
      "transactionIndex": "0x39",
      "blockHash": "0xaec843fbd66abfc6eaefce414c66fbbc24805e139ace27094557a7b6c70213f1",
      "blockNumber": "0x5db4de",
      "gasUsed": "0x2c6fe",
      "effectiveGasPrice": "0x66dcd45c",
      "from": "0x0364eda3cf25b1bfb4918ab93d5df173c197c9ab",
      "to": "0x6d521a9f71f01dd8669c4a2824d610a9f86962ae",
      "contractAddress": null
    }
  ],
  "libraries": [],
  "pending": [],
  "returns": {},
  "timestamp": 1718809303,
  "chain": 11155111,
  "commit": "ecc4a7b"
}