{
  "transactions": [
    {
      "hash": "0x8c452c55b0cdea5dc8016c17ddf68e4233a890c9d0cca510e36889f8f8d69630",
      "transactionType": "CALL",
      "contractName": null,
      "contractAddress": "0xecee58b49ae110de08cfb5d93419d070c8b4cc91",
      "function": "mintNft(string)",
      "arguments": [
        "\"ipfs://QmY175EFoDPJngL4HDNNSLTsxpvC7fWLw8QQft5rESxjQA\""
      ],
      "transaction": {
        "from": "0x0364eda3cf25b1bfb4918ab93d5df173c197c9ab",
        "to": "0xecee58b49ae110de08cfb5d93419d070c8b4cc91",
        "gas": "0x35b6e",
        "value": "0x0",
        "input": "0xda86f4a900000000000000000000000000000000000000000000000000000000000000200000000000000000000000000000000000000000000000000000000000000035697066733a2f2f516d5931373545466f44504a6e674c3448444e4e534c5473787076433766574c77385151667435724553786a51410000000000000000000000",
        "nonce": "0x31",
        "chainId": "0xaa36a7"
      },
      "additionalContracts": [],
      "isFixedGasLimit": false
    }
  ],
  "receipts": [
    {
      "status": "0x1",
      "cumulativeGasUsed": "0xe920d1",
      "logs": [
        {
          "address": "0xecee58b49ae110de08cfb5d93419d070c8b4cc91",
          "topics": [
            "0xddf252ad1be2c89b69c2b068fc378daa952ba7f163c4a11628f55a4df523b3ef",
            "0x0000000000000000000000000000000000000000000000000000000000000000",
            "0x0000000000000000000000000364eda3cf25b1bfb4918ab93d5df173c197c9ab",
            "0x0000000000000000000000000000000000000000000000000000000000000000"
          ],
          "data": "0x",
          "blockHash": "0x1c04a4fff82cf3c449c021348a36454c5d40c4b34eda7179cdb8afceeac182ae",
          "blockNumber": "0x5db78a",
          "transactionHash": "0x8c452c55b0cdea5dc8016c17ddf68e4233a890c9d0cca510e36889f8f8d69630",
          "transactionIndex": "0x70",
          "logIndex": "0xad",
          "removed": false
        }
      ],
      "logsBloom": "0x00000000000000000000000000000000000000000000000000000000000000000000000000000000000200000000000000000000000000000000002000000000000000000000000000000008000000000000000000000000000000000000000000000000020000000000000000000800000000000000000000000010000000400000000000000000000000000000000000000000000000000000000000000000000000000000000000000000000000000000000000000000000000000000000000000002000000000000000000000000000000000000000400020000000020000000000000000000000000000000000000000000000000000000000004000000",
      "type": "0x2",
      "transactionHash": "0x8c452c55b0cdea5dc8016c17ddf68e4233a890c9d0cca510e36889f8f8d69630",
      "transactionIndex": "0x70",
      "blockHash": "0x1c04a4fff82cf3c449c021348a36454c5d40c4b34eda7179cdb8afceeac182ae",
      "blockNumber": "0x5db78a",
      "gasUsed": "0x26e37",
      "effectiveGasPrice": "0x2b961693",
      "from": "0x0364eda3cf25b1bfb4918ab93d5df173c197c9ab",
      "to": "0xecee58b49ae110de08cfb5d93419d070c8b4cc91",
      "contractAddress": null
    }
  ],
  "libraries": [],
  "pending": [],
  "returns": {},
  "timestamp": 1718817987,
  "chain": 11155111,
  "commit": "ecc4a7b"
}